{
  "_format": "hh-sol-artifact-1",
  "contractName": "NFTMarketplace",
  "sourceName": "contracts/NFTMarketplace.sol",
  "abi": [
    {
      "inputs": [],
      "stateMutability": "nonpayable",
      "type": "constructor"
    },
    {
      "anonymous": false,
      "inputs": [
        {
          "indexed": true,
          "internalType": "address",
          "name": "owner",
          "type": "address"
        },
        {
          "indexed": true,
          "internalType": "address",
          "name": "approved",
          "type": "address"
        },
        {
          "indexed": true,
          "internalType": "uint256",
          "name": "tokenId",
          "type": "uint256"
        }
      ],
      "name": "Approval",
      "type": "event"
    },
    {
      "anonymous": false,
      "inputs": [
        {
          "indexed": true,
          "internalType": "address",
          "name": "owner",
          "type": "address"
        },
        {
          "indexed": true,
          "internalType": "address",
          "name": "operator",
          "type": "address"
        },
        {
          "indexed": false,
          "internalType": "bool",
          "name": "approved",
          "type": "bool"
        }
      ],
      "name": "ApprovalForAll",
      "type": "event"
    },
    {
      "anonymous": false,
      "inputs": [
        {
          "indexed": false,
          "internalType": "address",
          "name": "nftContract",
          "type": "address"
        },
        {
          "indexed": false,
          "internalType": "uint256",
          "name": "tokenId",
          "type": "uint256"
        },
        {
          "indexed": false,
          "internalType": "address",
          "name": "seller",
          "type": "address"
        },
        {
          "indexed": false,
          "internalType": "address",
          "name": "owner",
          "type": "address"
        },
        {
          "indexed": false,
          "internalType": "uint256",
          "name": "price",
          "type": "uint256"
        }
      ],
      "name": "NFTListed",
      "type": "event"
    },
    {
      "anonymous": false,
      "inputs": [
        {
          "indexed": true,
          "internalType": "uint256",
          "name": "tokenId",
          "type": "uint256"
        },
        {
          "indexed": false,
          "internalType": "address",
          "name": "owner",
          "type": "address"
        },
        {
          "indexed": false,
          "internalType": "address",
          "name": "seller",
          "type": "address"
        },
        {
          "indexed": false,
          "internalType": "uint256",
          "name": "price",
          "type": "uint256"
        },
        {
          "indexed": false,
          "internalType": "bool",
          "name": "currentlyListed",
          "type": "bool"
        }
      ],
      "name": "TokenListedSuccess",
      "type": "event"
    },
    {
      "anonymous": false,
      "inputs": [
        {
          "indexed": true,
          "internalType": "address",
          "name": "from",
          "type": "address"
        },
        {
          "indexed": true,
          "internalType": "address",
          "name": "to",
          "type": "address"
        },
        {
          "indexed": true,
          "internalType": "uint256",
          "name": "tokenId",
          "type": "uint256"
        }
      ],
      "name": "Transfer",
      "type": "event"
    },
    {
      "inputs": [
        {
          "internalType": "address",
          "name": "to",
          "type": "address"
        },
        {
          "internalType": "uint256",
          "name": "tokenId",
          "type": "uint256"
        }
      ],
      "name": "approve",
      "outputs": [],
      "stateMutability": "nonpayable",
      "type": "function"
    },
    {
      "inputs": [
        {
          "internalType": "address",
          "name": "owner",
          "type": "address"
        }
      ],
      "name": "balanceOf",
      "outputs": [
        {
          "internalType": "uint256",
          "name": "",
          "type": "uint256"
        }
      ],
      "stateMutability": "view",
      "type": "function"
    },
    {
      "inputs": [],
      "name": "basePercent",
      "outputs": [
        {
          "internalType": "uint256",
          "name": "",
          "type": "uint256"
        }
      ],
      "stateMutability": "view",
      "type": "function"
    },
    {
      "inputs": [
        {
          "internalType": "string",
          "name": "tokenURI",
          "type": "string"
        },
        {
          "internalType": "uint256",
          "name": "price",
          "type": "uint256"
        }
      ],
      "name": "createToken",
      "outputs": [
        {
          "internalType": "uint256",
          "name": "",
          "type": "uint256"
        }
      ],
      "stateMutability": "payable",
      "type": "function"
    },
    {
      "inputs": [
        {
          "internalType": "uint256",
          "name": "tokenId",
          "type": "uint256"
        }
      ],
      "name": "executeSale",
      "outputs": [],
      "stateMutability": "payable",
      "type": "function"
    },
    {
      "inputs": [],
      "name": "getAllNFTs",
      "outputs": [
        {
          "components": [
            {
              "internalType": "uint256",
              "name": "tokenId",
              "type": "uint256"
            },
            {
              "internalType": "address payable",
              "name": "owner",
              "type": "address"
            },
            {
              "internalType": "address payable",
              "name": "seller",
              "type": "address"
            },
            {
              "internalType": "uint256",
              "name": "price",
              "type": "uint256"
            },
            {
              "internalType": "bool",
              "name": "currentlyListed",
              "type": "bool"
            }
          ],
          "internalType": "struct NFTMarketplace.ListedToken[]",
          "name": "",
          "type": "tuple[]"
        }
      ],
      "stateMutability": "view",
      "type": "function"
    },
    {
      "inputs": [
        {
          "internalType": "uint256",
          "name": "tokenId",
          "type": "uint256"
        }
      ],
      "name": "getApproved",
      "outputs": [
        {
          "internalType": "address",
          "name": "",
          "type": "address"
        }
      ],
      "stateMutability": "view",
      "type": "function"
    },
    {
      "inputs": [],
      "name": "getCurrentToken",
      "outputs": [
        {
          "internalType": "uint256",
          "name": "",
          "type": "uint256"
        }
      ],
      "stateMutability": "view",
      "type": "function"
    },
    {
      "inputs": [],
      "name": "getLatestIdToListedToken",
      "outputs": [
        {
          "components": [
            {
              "internalType": "uint256",
              "name": "tokenId",
              "type": "uint256"
            },
            {
              "internalType": "address payable",
              "name": "owner",
              "type": "address"
            },
            {
              "internalType": "address payable",
              "name": "seller",
              "type": "address"
            },
            {
              "internalType": "uint256",
              "name": "price",
              "type": "uint256"
            },
            {
              "internalType": "bool",
              "name": "currentlyListed",
              "type": "bool"
            }
          ],
          "internalType": "struct NFTMarketplace.ListedToken",
          "name": "",
          "type": "tuple"
        }
      ],
      "stateMutability": "view",
      "type": "function"
    },
    {
      "inputs": [],
      "name": "getListPrice",
      "outputs": [
        {
          "internalType": "uint256",
          "name": "",
          "type": "uint256"
        }
      ],
      "stateMutability": "view",
      "type": "function"
    },
    {
      "inputs": [
        {
          "internalType": "uint256",
          "name": "tokenId",
          "type": "uint256"
        }
      ],
      "name": "getListedTokenForId",
      "outputs": [
        {
          "components": [
            {
              "internalType": "uint256",
              "name": "tokenId",
              "type": "uint256"
            },
            {
              "internalType": "address payable",
              "name": "owner",
              "type": "address"
            },
            {
              "internalType": "address payable",
              "name": "seller",
              "type": "address"
            },
            {
              "internalType": "uint256",
              "name": "price",
              "type": "uint256"
            },
            {
              "internalType": "bool",
              "name": "currentlyListed",
              "type": "bool"
            }
          ],
          "internalType": "struct NFTMarketplace.ListedToken",
          "name": "",
          "type": "tuple"
        }
      ],
      "stateMutability": "view",
      "type": "function"
    },
    {
      "inputs": [],
      "name": "getMyNFTs",
      "outputs": [
        {
          "components": [
            {
              "internalType": "uint256",
              "name": "tokenId",
              "type": "uint256"
            },
            {
              "internalType": "address payable",
              "name": "owner",
              "type": "address"
            },
            {
              "internalType": "address payable",
              "name": "seller",
              "type": "address"
            },
            {
              "internalType": "uint256",
              "name": "price",
              "type": "uint256"
            },
            {
              "internalType": "bool",
              "name": "currentlyListed",
              "type": "bool"
            }
          ],
          "internalType": "struct NFTMarketplace.ListedToken[]",
          "name": "",
          "type": "tuple[]"
        }
      ],
      "stateMutability": "view",
      "type": "function"
    },
    {
      "inputs": [
        {
          "internalType": "address",
          "name": "owner",
          "type": "address"
        },
        {
          "internalType": "address",
          "name": "operator",
          "type": "address"
        }
      ],
      "name": "isApprovedForAll",
      "outputs": [
        {
          "internalType": "bool",
          "name": "",
          "type": "bool"
        }
      ],
      "stateMutability": "view",
      "type": "function"
    },
    {
      "inputs": [],
      "name": "name",
      "outputs": [
        {
          "internalType": "string",
          "name": "",
          "type": "string"
        }
      ],
      "stateMutability": "view",
      "type": "function"
    },
    {
      "inputs": [
        {
          "internalType": "uint256",
          "name": "tokenId",
          "type": "uint256"
        }
      ],
      "name": "ownerOf",
      "outputs": [
        {
          "internalType": "address",
          "name": "",
          "type": "address"
        }
      ],
      "stateMutability": "view",
      "type": "function"
    },
    {
      "inputs": [
        {
          "internalType": "uint256",
          "name": "tokenId",
          "type": "uint256"
        },
        {
          "internalType": "uint256",
          "name": "price",
          "type": "uint256"
        }
      ],
      "name": "resellNft",
      "outputs": [],
      "stateMutability": "payable",
      "type": "function"
    },
    {
      "inputs": [
        {
          "internalType": "address",
          "name": "from",
          "type": "address"
        },
        {
          "internalType": "address",
          "name": "to",
          "type": "address"
        },
        {
          "internalType": "uint256",
          "name": "tokenId",
          "type": "uint256"
        }
      ],
      "name": "safeTransferFrom",
      "outputs": [],
      "stateMutability": "nonpayable",
      "type": "function"
    },
    {
      "inputs": [
        {
          "internalType": "address",
          "name": "from",
          "type": "address"
        },
        {
          "internalType": "address",
          "name": "to",
          "type": "address"
        },
        {
          "internalType": "uint256",
          "name": "tokenId",
          "type": "uint256"
        },
        {
          "internalType": "bytes",
          "name": "data",
          "type": "bytes"
        }
      ],
      "name": "safeTransferFrom",
      "outputs": [],
      "stateMutability": "nonpayable",
      "type": "function"
    },
    {
      "inputs": [
        {
          "internalType": "address",
          "name": "operator",
          "type": "address"
        },
        {
          "internalType": "bool",
          "name": "approved",
          "type": "bool"
        }
      ],
      "name": "setApprovalForAll",
      "outputs": [],
      "stateMutability": "nonpayable",
      "type": "function"
    },
    {
      "inputs": [
        {
          "internalType": "bytes4",
          "name": "interfaceId",
          "type": "bytes4"
        }
      ],
      "name": "supportsInterface",
      "outputs": [
        {
          "internalType": "bool",
          "name": "",
          "type": "bool"
        }
      ],
      "stateMutability": "view",
      "type": "function"
    },
    {
      "inputs": [],
      "name": "symbol",
      "outputs": [
        {
          "internalType": "string",
          "name": "",
          "type": "string"
        }
      ],
      "stateMutability": "view",
      "type": "function"
    },
    {
      "inputs": [
        {
          "internalType": "uint256",
          "name": "_value",
          "type": "uint256"
        }
      ],
      "name": "tenPercent",
      "outputs": [
        {
          "internalType": "uint256",
          "name": "",
          "type": "uint256"
        }
      ],
      "stateMutability": "view",
      "type": "function"
    },
    {
      "inputs": [
        {
          "internalType": "uint256",
          "name": "tokenId",
          "type": "uint256"
        }
      ],
      "name": "tokenURI",
      "outputs": [
        {
          "internalType": "string",
          "name": "",
          "type": "string"
        }
      ],
      "stateMutability": "view",
      "type": "function"
    },
    {
      "inputs": [
        {
          "internalType": "address",
          "name": "from",
          "type": "address"
        },
        {
          "internalType": "address",
          "name": "to",
          "type": "address"
        },
        {
          "internalType": "uint256",
          "name": "tokenId",
          "type": "uint256"
        }
      ],
      "name": "transferFrom",
      "outputs": [],
      "stateMutability": "nonpayable",
      "type": "function"
    },
    {
      "inputs": [
        {
          "internalType": "uint256",
          "name": "_listPrice",
          "type": "uint256"
        }
      ],
      "name": "updateListPrice",
      "outputs": [],
      "stateMutability": "payable",
      "type": "function"
    }
  ],
  "bytecode": "0x6080604052662386f26fc10000600a556064600d553480156200002157600080fd5b50604080518082018252600e81526d4e46544d61726b6574706c61636560901b6020808301918252835180850190945260048452634e46544d60e01b9084015281519192916200007491600091620000a5565b5080516200008a906001906020840190620000a5565b5050600980546001600160a01b031916331790555062000188565b828054620000b3906200014b565b90600052602060002090601f016020900481019282620000d7576000855562000122565b82601f10620000f257805160ff191683800117855562000122565b8280016001018555821562000122579182015b828111156200012257825182559160200191906001019062000105565b506200013092915062000134565b5090565b5b8082111562000130576000815560010162000135565b600181811c908216806200016057607f821691505b602082108114156200018257634e487b7160e01b600052602260045260246000fd5b50919050565b6122c980620001986000396000f3fe6080604052600436106101665760003560e01c806372b3b620116100d1578063c322579c1161008a578063d1a88ae511610064578063d1a88ae514610405578063e0391b091461041a578063e985e9c51461042f578063ef2d17461461047857600080fd5b8063c322579c146103bc578063c5ac0ded146103cf578063c87b56dd146103e557600080fd5b806372b3b620146103145780638e2645901461032757806395d89b41146103545780639b1225c414610369578063a22cb4651461037c578063b88d4fde1461039c57600080fd5b80632577236411610123578063257723641461024f57806342842e0e1461027d578063629cb2e41461029d5780636352211e146102bf57806368f1945f146102df57806370a08231146102f457600080fd5b806301ffc9a71461016b57806306fdde03146101a0578063081812fc146101c2578063095ea7b3146101fa57806320d748e71461021c57806323b872dd1461022f575b600080fd5b34801561017757600080fd5b5061018b610186366004611e95565b61048d565b60405190151581526020015b60405180910390f35b3480156101ac57600080fd5b506101b56104df565b6040516101979190612082565b3480156101ce57600080fd5b506101e26101dd366004611f23565b610571565b6040516001600160a01b039091168152602001610197565b34801561020657600080fd5b5061021a610215366004611e6c565b610598565b005b61021a61022a366004611f3b565b6106b3565b34801561023b57600080fd5b5061021a61024a366004611d7e565b6106c1565b34801561025b57600080fd5b5061026f61026a366004611f23565b6106f2565b604051908152602001610197565b34801561028957600080fd5b5061021a610298366004611d7e565b610724565b3480156102a957600080fd5b506102b261073f565b6040516101979190612034565b3480156102cb57600080fd5b506101e26102da366004611f23565b610984565b3480156102eb57600080fd5b50600a5461026f565b34801561030057600080fd5b5061026f61030f366004611d32565b6109e4565b61026f610322366004611ecd565b610a6a565b34801561033357600080fd5b50610347610342366004611f23565b610ad6565b6040516101979190612135565b34801561036057600080fd5b506101b5610b40565b61021a610377366004611f23565b610b4f565b34801561038857600080fd5b5061021a610397366004611e32565b610d1b565b3480156103a857600080fd5b5061021a6103b7366004611db9565b610d26565b61021a6103ca366004611f23565b610d5e565b3480156103db57600080fd5b5061026f600d5481565b3480156103f157600080fd5b506101b5610400366004611f23565b610dc9565b34801561041157600080fd5b50610347610ed2565b34801561042657600080fd5b506102b2610f49565b34801561043b57600080fd5b5061018b61044a366004611d4c565b6001600160a01b03918216600090815260056020908152604080832093909416825291909152205460ff1690565b34801561048457600080fd5b5061026f611090565b60006001600160e01b031982166380ac58cd60e01b14806104be57506001600160e01b03198216635b5e139f60e01b145b806104d957506301ffc9a760e01b6001600160e01b03198316145b92915050565b6060600080546104ee906121d1565b80601f016020809104026020016040519081016040528092919081815260200182805461051a906121d1565b80156105675780601f1061053c57610100808354040283529160200191610567565b820191906000526020600020905b81548152906001019060200180831161054a57829003601f168201915b5050505050905090565b600061057c826110a0565b506000908152600460205260409020546001600160a01b031690565b60006105a382610984565b9050806001600160a01b0316836001600160a01b031614156106165760405162461bcd60e51b815260206004820152602160248201527f4552433732313a20617070726f76616c20746f2063757272656e74206f776e656044820152603960f91b60648201526084015b60405180910390fd5b336001600160a01b03821614806106325750610632813361044a565b6106a45760405162461bcd60e51b815260206004820152603e60248201527f4552433732313a20617070726f76652063616c6c6572206973206e6f7420746f60448201527f6b656e206f776e6572206e6f7220617070726f76656420666f7220616c6c0000606482015260840161060d565b6106ae8383611102565b505050565b6106bd8282611170565b5050565b6106cb3382611312565b6106e75760405162461bcd60e51b815260040161060d906120e7565b6106ae838383611390565b60008061070183600d5461152c565b9050600061071c61071483600d54611566565b6103e86115b0565b949350505050565b6106ae83838360405180602001604052806000815250610d26565b6060600061074c60075490565b905060008060005b838110156107e45733600b600061076c846001612143565b81526020810191909152604001600020600101546001600160a01b031614806107bf575033600b60006107a0846001612143565b81526020810191909152604001600020600201546001600160a01b0316145b156107d2576107cf600184612143565b92505b806107dc8161220c565b915050610754565b5060008267ffffffffffffffff81111561080e57634e487b7160e01b600052604160045260246000fd5b60405190808252806020026020018201604052801561084757816020015b610834611bd9565b81526020019060019003908161082c5790505b50905060005b8481101561097b5733600b6000610865846001612143565b81526020810191909152604001600020600101546001600160a01b031614806108b8575033600b6000610899846001612143565b81526020810191909152604001600020600201546001600160a01b0316145b156109695760006108ca826001612143565b6000818152600b6020908152604091829020825160a0810184528154815260018201546001600160a01b039081169382019390935260028201549092169282019290925260038201546060820152600482015460ff16151560808201528551929350909185908790811061094e57634e487b7160e01b600052603260045260246000fd5b6020908102919091010152610964600186612143565b945050505b806109738161220c565b91505061084d565b50949350505050565b6000818152600260205260408120546001600160a01b0316806104d95760405162461bcd60e51b8152602060048201526018602482015277115490cdcc8c4e881a5b9d985b1a59081d1bdad95b88125160421b604482015260640161060d565b60006001600160a01b038216610a4e5760405162461bcd60e51b815260206004820152602960248201527f4552433732313a2061646472657373207a65726f206973206e6f7420612076616044820152683634b21037bbb732b960b91b606482015260840161060d565b506001600160a01b031660009081526003602052604090205490565b6000610a7a600780546001019055565b6000610a8560075490565b9050610a9133826115bd565b610a9b81856115d7565b610aa6306001610d1b565b610ab08184611170565b6000818152600c6020526040902080546001600160a01b03191633179055905092915050565b610ade611bd9565b506000908152600b6020908152604091829020825160a0810184528154815260018201546001600160a01b03908116938201939093526002820154909216928201929092526003820154606082015260049091015460ff161515608082015290565b6060600180546104ee906121d1565b6000818152600b6020526040902060038101546002909101546001600160a01b0316348214610be8576040805162461bcd60e51b81526020600482015260248101919091527f506c65617365207375626d6974207468652061736b696e67207072696365206960448201527f6e206f7264657220746f20636f6d706c65746520746865207075726368617365606482015260840161060d565b6000838152600b6020526040902060048101805460ff1916600117905560020180546001600160a01b03191633179055610c26600880546001019055565b610c31303385611390565b610c3b3084610598565b600954600a546040516001600160a01b039092169181156108fc0291906000818181858888f19350505050158015610c77573d6000803e3d6000fd5b506000838152600c60205260408120546001600160a01b031690610c9a346106f2565b6040519091506001600160a01b0383169082156108fc029083906000818181858888f19350505050158015610cd3573d6000803e3d6000fd5b506001600160a01b0383166108fc610ceb833461218e565b6040518115909202916000818181858888f19350505050158015610d13573d6000803e3d6000fd5b505050505050565b6106bd338383611671565b610d303383611312565b610d4c5760405162461bcd60e51b815260040161060d906120e7565b610d5884848484611740565b50505050565b6009546001600160a01b03163314610dc45760405162461bcd60e51b815260206004820152602360248201527f4f6e6c79206f776e65722063616e20757064617465206c697374696e6720707260448201526269636560e81b606482015260840161060d565b600a55565b6060610dd4826110a0565b60008281526006602052604081208054610ded906121d1565b80601f0160208091040260200160405190810160405280929190818152602001828054610e19906121d1565b8015610e665780601f10610e3b57610100808354040283529160200191610e66565b820191906000526020600020905b815481529060010190602001808311610e4957829003601f168201915b505050505090506000610e8460408051602081019091526000815290565b9050805160001415610e97575092915050565b815115610ec9578082604051602001610eb1929190611fc8565b60405160208183030381529060405292505050919050565b61071c84611773565b610eda611bd9565b6000610ee560075490565b6000908152600b6020908152604091829020825160a0810184528154815260018201546001600160a01b03908116938201939093526002820154909216928201929092526003820154606082015260049091015460ff161515608082015292915050565b60606000610f5660075490565b905060008167ffffffffffffffff811115610f8157634e487b7160e01b600052604160045260246000fd5b604051908082528060200260200182016040528015610fba57816020015b610fa7611bd9565b815260200190600190039081610f9f5790505b5090506000805b83811015611087576000610fd6826001612143565b6000818152600b6020908152604091829020825160a0810184528154815260018201546001600160a01b039081169382019390935260028201549092169282019290925260038201546060820152600482015460ff16151560808201528651929350909186908690811061105a57634e487b7160e01b600052603260045260246000fd5b6020908102919091010152611070600185612143565b93505050808061107f9061220c565b915050610fc1565b50909392505050565b600061109b60075490565b905090565b6000818152600260205260409020546001600160a01b03166110ff5760405162461bcd60e51b8152602060048201526018602482015277115490cdcc8c4e881a5b9d985b1a59081d1bdad95b88125160421b604482015260640161060d565b50565b600081815260046020526040902080546001600160a01b0319166001600160a01b038416908117909155819061113782610984565b6001600160a01b03167f8c5be1e5ebec7d5bd14f71427d1e84f3dd0314c0f7b2291e5b200ac8c7c3b92560405160405180910390a45050565b600a5434146111cd5760405162461bcd60e51b815260206004820152602360248201527f486f706566756c6c792073656e64696e672074686520636f727265637420707260448201526269636560e81b606482015260840161060d565b600081116112285760405162461bcd60e51b815260206004820152602260248201527f4d616b652073757265207468652070726963652069736e2774206e6567617469604482015261766560f01b606482015260840161060d565b6040805160a081018252838152306020808301828152338486018181526060860188815260016080880181815260008c8152600b9097529890952096518755925193860180546001600160a01b039586166001600160a01b03199182161790915590516002870180549190951691161790925551600384015592516004909201805492151560ff19909316929092179091556112c5919084611390565b604080513081523360208201529081018290526001606082015282907f9339409317fd01fabff48b703019016f49159bacc801ae872d2ca637d226e4c09060800160405180910390a25050565b60008061131e83610984565b9050806001600160a01b0316846001600160a01b0316148061136557506001600160a01b0380821660009081526005602090815260408083209388168352929052205460ff165b8061071c5750836001600160a01b031661137e84610571565b6001600160a01b031614949350505050565b826001600160a01b03166113a382610984565b6001600160a01b0316146114075760405162461bcd60e51b815260206004820152602560248201527f4552433732313a207472616e736665722066726f6d20696e636f72726563742060448201526437bbb732b960d91b606482015260840161060d565b6001600160a01b0382166114695760405162461bcd60e51b8152602060048201526024808201527f4552433732313a207472616e7366657220746f20746865207a65726f206164646044820152637265737360e01b606482015260840161060d565b611474600082611102565b6001600160a01b038316600090815260036020526040812080546001929061149d90849061218e565b90915550506001600160a01b03821660009081526003602052604081208054600192906114cb908490612143565b909155505060008181526002602052604080822080546001600160a01b0319166001600160a01b0386811691821790925591518493918716917fddf252ad1be2c89b69c2b068fc378daa952ba7f163c4a11628f55a4df523b3ef91a4505050565b60008061153984846117e6565b90506000611548826001611813565b905061155d61155782866115b0565b85611566565b95945050505050565b600082611575575060006104d9565b6000611581838561216f565b90508261158e858361215b565b146115a957634e487b7160e01b600052600160045260246000fd5b9392505050565b60008061071c838561215b565b6106bd82826040518060200160405280600081525061183d565b6000828152600260205260409020546001600160a01b03166116525760405162461bcd60e51b815260206004820152602e60248201527f45524337323155524953746f726167653a2055524920736574206f66206e6f6e60448201526d32bc34b9ba32b73a103a37b5b2b760911b606482015260840161060d565b600082815260066020908152604090912082516106ae92840190611c07565b816001600160a01b0316836001600160a01b031614156116d35760405162461bcd60e51b815260206004820152601960248201527f4552433732313a20617070726f766520746f2063616c6c657200000000000000604482015260640161060d565b6001600160a01b03838116600081815260056020908152604080832094871680845294825291829020805460ff191686151590811790915591519182527f17307eab39ab6107e8899845ad3d59bd9653f200f220920489ca2b5937696c31910160405180910390a3505050565b61174b848484611390565b61175784848484611870565b610d585760405162461bcd60e51b815260040161060d90612095565b606061177e826110a0565b600061179560408051602081019091526000815290565b905060008151116117b557604051806020016040528060008152506115a9565b806117bf8461197d565b6040516020016117d0929190611fc8565b6040516020818303038152906040529392505050565b6000806117f38385612143565b9050838110156115a957634e487b7160e01b600052600160045260246000fd5b60008282111561183357634e487b7160e01b600052600160045260246000fd5b6115a9828461218e565b6118478383611a97565b6118546000848484611870565b6106ae5760405162461bcd60e51b815260040161060d90612095565b60006001600160a01b0384163b1561197257604051630a85bd0160e11b81526001600160a01b0385169063150b7a02906118b4903390899088908890600401611ff7565b602060405180830381600087803b1580156118ce57600080fd5b505af19250505080156118fe575060408051601f3d908101601f191682019092526118fb91810190611eb1565b60015b611958573d80801561192c576040519150601f19603f3d011682016040523d82523d6000602084013e611931565b606091505b5080516119505760405162461bcd60e51b815260040161060d90612095565b805181602001fd5b6001600160e01b031916630a85bd0160e11b14905061071c565b506001949350505050565b6060816119a15750506040805180820190915260018152600360fc1b602082015290565b8160005b81156119cb57806119b58161220c565b91506119c49050600a8361215b565b91506119a5565b60008167ffffffffffffffff8111156119f457634e487b7160e01b600052604160045260246000fd5b6040519080825280601f01601f191660200182016040528015611a1e576020820181803683370190505b5090505b841561071c57611a3360018361218e565b9150611a40600a86612227565b611a4b906030612143565b60f81b818381518110611a6e57634e487b7160e01b600052603260045260246000fd5b60200101906001600160f81b031916908160001a905350611a90600a8661215b565b9450611a22565b6001600160a01b038216611aed5760405162461bcd60e51b815260206004820181905260248201527f4552433732313a206d696e7420746f20746865207a65726f2061646472657373604482015260640161060d565b6000818152600260205260409020546001600160a01b031615611b525760405162461bcd60e51b815260206004820152601c60248201527f4552433732313a20746f6b656e20616c7265616479206d696e74656400000000604482015260640161060d565b6001600160a01b0382166000908152600360205260408120805460019290611b7b908490612143565b909155505060008181526002602052604080822080546001600160a01b0319166001600160a01b03861690811790915590518392907fddf252ad1be2c89b69c2b068fc378daa952ba7f163c4a11628f55a4df523b3ef908290a45050565b6040805160a08101825260008082526020820181905291810182905260608101829052608081019190915290565b828054611c13906121d1565b90600052602060002090601f016020900481019282611c355760008555611c7b565b82601f10611c4e57805160ff1916838001178555611c7b565b82800160010185558215611c7b579182015b82811115611c7b578251825591602001919060010190611c60565b50611c87929150611c8b565b5090565b5b80821115611c875760008155600101611c8c565b600067ffffffffffffffff80841115611cbb57611cbb612267565b604051601f8501601f19908116603f01168101908282118183101715611ce357611ce3612267565b81604052809350858152868686011115611cfc57600080fd5b858560208301376000602087830101525050509392505050565b80356001600160a01b0381168114611d2d57600080fd5b919050565b600060208284031215611d43578081fd5b6115a982611d16565b60008060408385031215611d5e578081fd5b611d6783611d16565b9150611d7560208401611d16565b90509250929050565b600080600060608486031215611d92578081fd5b611d9b84611d16565b9250611da960208501611d16565b9150604084013590509250925092565b60008060008060808587031215611dce578081fd5b611dd785611d16565b9350611de560208601611d16565b925060408501359150606085013567ffffffffffffffff811115611e07578182fd5b8501601f81018713611e17578182fd5b611e2687823560208401611ca0565b91505092959194509250565b60008060408385031215611e44578182fd5b611e4d83611d16565b915060208301358015158114611e61578182fd5b809150509250929050565b60008060408385031215611e7e578182fd5b611e8783611d16565b946020939093013593505050565b600060208284031215611ea6578081fd5b81356115a98161227d565b600060208284031215611ec2578081fd5b81516115a98161227d565b60008060408385031215611edf578182fd5b823567ffffffffffffffff811115611ef5578283fd5b8301601f81018513611f05578283fd5b611f1485823560208401611ca0565b95602094909401359450505050565b600060208284031215611f34578081fd5b5035919050565b60008060408385031215611f4d578182fd5b50508035926020909101359150565b60008151808452611f748160208601602086016121a5565b601f01601f19169290920160200192915050565b805182526020808201516001600160a01b039081169184019190915260408083015190911690830152606080820151908301526080908101511515910152565b60008351611fda8184602088016121a5565b835190830190611fee8183602088016121a5565b01949350505050565b6001600160a01b038581168252841660208201526040810183905260806060820181905260009061202a90830184611f5c565b9695505050505050565b6020808252825182820181905260009190848201906040850190845b8181101561207657612063838551611f88565b9284019260a09290920191600101612050565b50909695505050505050565b6020815260006115a96020830184611f5c565b60208082526032908201527f4552433732313a207472616e7366657220746f206e6f6e20455243373231526560408201527131b2b4bb32b91034b6b83632b6b2b73a32b960711b606082015260800190565b6020808252602e908201527f4552433732313a2063616c6c6572206973206e6f7420746f6b656e206f776e6560408201526d1c881b9bdc88185c1c1c9bdd995960921b606082015260800190565b60a081016104d98284611f88565b600082198211156121565761215661223b565b500190565b60008261216a5761216a612251565b500490565b60008160001904831182151516156121895761218961223b565b500290565b6000828210156121a0576121a061223b565b500390565b60005b838110156121c05781810151838201526020016121a8565b83811115610d585750506000910152565b600181811c908216806121e557607f821691505b6020821081141561220657634e487b7160e01b600052602260045260246000fd5b50919050565b60006000198214156122205761222061223b565b5060010190565b60008261223657612236612251565b500690565b634e487b7160e01b600052601160045260246000fd5b634e487b7160e01b600052601260045260246000fd5b634e487b7160e01b600052604160045260246000fd5b6001600160e01b0319811681146110ff57600080fdfea26469706673582212209caa8cc5b3f719eb94c5a560fe46ab5156b3e4cadb14a7a26d8a5bed185f930764736f6c63430008040033",
  "linkReferences": {},
  "deployedLinkReferences": {}
}